:020000040800F2
:1000000020FB01205D0300089DD20008957A0008BE
:10001000B1BF0008DD27000819F10008000000004A
:1000200000000000000000000000000045E700089C
:10003000433B000800000000A1D20008D3E80008FC
:1000400077030008770300087703000877030008A8
:100050007703000877030008693B0008770300086E
:10006000733B00087D3B0008873B000877030008CE
:100070007703000877030008770300086939000850
:100080007703000877030008770300087703000868
:100090007703000877030008770300087703000858
:1000A0007703000877030008770300087703000848
:1000B0007703000877030008A5E900087703000824
:1000C0007703000877030008770300087703000828
:1000D000770300085DF00008770300089DF0000832
:1000E00077030008A5D2000877030008770300080B
:1000F00077030008770300087703000877030008F8
:1001000077030008770300087703000877030008E7
:10011000770300087703000877030008E9E900087F
:1001200077030008770300087703000877030008C7
:1001300077030008770300087703000877030008B7
:1001400077030008770300087703000877030008A7
:100150007703000877030008770300087703000897
:100160007703000877030008770300087703000887
:1001700077030008770300087703000800000000F9
:10018000770300087703000800F002F800F0B4F8E5
:100190000AA090E8000C82448344AAF10107DA45E2
:1001A00001D100F0A9F8AFF2090EBAE80F0013F080
:1001B000010F18BFFB1A43F00103184748ED010077
:1001C00068ED01000A444FF0000C10F8013B13F0F9
:1001D000070408BF10F8014B1D1108BF10F8015BA0
:1001E000641E05D010F8016B641E01F8016BF9D193
:1001F00013F0080F1EBF10F8014BAD1C0C1B09D1EA
:100200006D1E58BF01F801CBFAD505E014F8016B5B
:1002100001F8016B6D1EF9D59142D6D370470000ED
:100220000023002400250026103A28BF78C1FBD8FF
:10023000520728BF30C148BF0B6070476E2900F0DD
:10024000DC85702900F06782662919F0EC82652947
:1002500019F0E982672919F0E682612919F0E5822F
:1002600003681B0A28BF41F08001692900F09A81C8
:10027000642900F09781752900F094816F2901F0BD
:10028000AC80782900F03382E92900F0C781E429A5
:1002900000F0C481F52900F0C181EF2901F0A980A7
:1002A000F82900F032820368DB0928BF41F08001A1
:1002B000632900F0F487732900F0F987E32901F03E
:1002C000F382F32901F0F882002070471FB519F07E
:1002D000A0FA00F0C8FB01F00DF904000020002195
:1002E00018F056FD401C60600020002118F03AFD17
:1002F000E0601FBD10B510BD01F036FD1146FFF7DF
:10030000E5FF15F02FFF01F05DFD03B4FFF7F2FFED
:1003100003BC10F052F9000030BF72B6704762B6ED
:10032000704780F3088870470B49D1F800C04A68CD
:100330005CF8043B1068184442F8040B8C4528BF55
:10034000A1F1DC0C8A4228BFA1F1DC02C1F800C097
:100350004A6020F000407047B8F401200948804707
:1003600009480047FEE7FEE7FEE7FEE7FEE7FEE797
:10037000FEE7FEE7FEE7FEE704480549054A064BAF
:100380007047000091E900088901000820F501206C
:1003900020FB012020F7012020F70120704753EABD
:1003A000020C00F069802DE9F04B4FF00006002BA5
:1003B0001FBFB3FA83F503FA05F424FA05F65E408D
:1003C00012BF1643B2FA82F502FA05F4C5F1200510
:1003D0001EBF22FA05FC44EA0C04203556EA044C00
:1003E0004FEA144418BF641C4FF000084FF0000996
:1003F000904271EB030C39D3002919BFB1FA81F790
:1004000001FA07F6B0FA80F700FA07F6C7F12007FD
:100410001EBF20FA07FC46EA0C062037B6FBF4FCA8
:10042000A7EB0507103F07F01F0BCBF120060CFAD6
:100430000BFB2CFA06F644BFB3460026202FA4BFC0
:100440005E464FF0000B5BEA060C08BF4FF0010B55
:1004500019EB0B09ABFB027C48EB0608C01B06FB43
:1004600002CC0BFB03CC71EB0C01C1E70B4602463F
:1004700041464846BDE8F08B13B54FF000004FF001
:100480000001AFF30080BDE81C4070477CB51D46FD
:1004900016460C00009001D02044401E074B7B44C0
:1004A0002A4669460190304600F0CFFE05461CB151
:1004B0000020694600F0DCFE28467CBDD90D000016
:1004C0000FB4044910B503AA029800F0F5FE10BC61
:1004D0005DF814FBBC0000200FB41CB5084B06AA45
:1004E0007B4469460090059800F0AFFE044600206A
:1004F000694600F0BDFE20461CBC5DF814FB000000
:100500008D0D000070B5044685690068C10601D5EF
:10051000302600E02026C00707D070BDD4E90121B5
:1005200030469047206A401C20626D1EF6D570BD93
:1005300070B5044685690078C00707D170BDD4E95D
:10054000012120209047206A401C20626D1EF6D5B4
:1005500070BD70B50C460546012A05D02878800686
:1005600000D5EA69002302E0012305E05B1C934209
:1005700002D2E05C0028F9D1A869E618C01AA86187
:10058000286A184428622846FFF7BCFF04E0D5E932
:10059000012114F8010B9047B442F8D32846FFF725
:1005A000C7FF70BD2DE9F04106460024106875298B
:1005B000314616A510D000F0B5FB002802DA404203
:1005C00013A507E031688A0701D512A502E04907A3
:1005D00004D511A5012401E000F0ADFB00210A22A1
:1005E00006F1240709E0B0FBF2FCB0FBF2F302FBDA
:1005F0001C00303078541846491C0028F3D123469B
:100600002A463046BDE8F04100F09EBB00000000E5
:100610002D0000002B000000200000002DE9F0411B
:100620008046D21D22F007020025D2E90002F529FA
:1006300015A614D0011E72F1000106DA0023D0EBDA
:10064000030063EB020211A608E0D8F800108B0744
:1006500001D50FA602E0490701D50EA601251146D6
:10066000002408F1240704E000F00CFB30323A5576
:10067000641C50EA0102F7D12B463246214640461F
:10068000BDE8F04100F060BB000000002D0000005C
:100690002B00000020000000F0B40D460188090581
:1006A00002D5214C7C4402E01F4C7C440E340021D6
:1006B00000F1240608E002F00F071209E75D42EAA4
:1006C00003721B097754491C52EA0307F3D10278DD
:1006D0000023120704D5702D06D009B1022311346E
:1006E0002246F0BC00F030BB01231034F8E770B5AF
:1006F00004460D462146106800F01DFB02462946BF
:100700002046BDE870400023C6E7D21D22F0070353
:10071000D3E90023C0E70368126843F020030360B5
:100720000823C3610023B7E744E201002DE9F05F2D
:10073000894604464FF0000ADFF874B1FB44C0F864
:1007400020A02046E1688847002874D0252806D0DC
:10075000D4E901219047206A401C2062F1E700267D
:100760005F462046E16888472028054607DB312D93
:1007700005D2781910F8200C08B10643F1E7B0074C
:1007800001D526F00406C4F81CA00027C4F818A060
:100790002A2D09D028460FF009FF38B304EB87084B
:1007A000303DC8F8185019E059F8041B204604EBF6
:1007B00087029161E1688847012F054618D1E069F9
:1007C000002820DA26F020061DE0D8F8180000EBFB
:1007D000800005EB40003038C8F818002046E1687A
:1007E000884705460FF0E2FE0028EED1012F0AD01F
:1007F0002E2D08D12046E16888477F1C0546022F30
:1008000046F02006C4DBA069002803DA404246F027
:100810000106A061F00701D026F010066C2D0BD068
:10082000682D09D04C2D39D06A2D35D0742D35D096
:100830007A2D33D016E038E0E1682F46204688470D
:10084000B842054609D16C2F26D04FF48060E1688C
:10085000064320468847054604E06C2F1AD04FF423
:10086000807006430DB3A5F14100192802D8203548
:1008700046F400664A462946204626604E46FFF763
:10088000DDFC80B101280BD0F61D26F0070000F139
:10089000080956E74020E4E78020D8E70020D6E7A3
:1008A00006F104094DE7284652E7206ABDE8F09FAB
:1008B000D4E101000FB400B58DB010A909900091EA
:1008C0000B904FF0FF300A9000200C9006487844BF
:1008D0000690064878446A4607900F9909A800F0E8
:1008E000A7FD0DB05DF814FB7F0B0000970B000017
:1008F0002DE9FF5F1D464FF0FF3B91464FF000088A
:100900005F46D5E90146A96901987F1C8847296A95
:10091000824688470028F6D1BAF1FF3F0CD0002E5E
:1009200024F4C06419DD600614D5BAF12B0F09D088
:10093000BAF12D0F0ED103E0584604B0BDE8F09F88
:1009400044F48064A96901987F1C8847761E82461A
:10095000002E02DDBAF1300F03D0B9F1000F26D01E
:1009600032E0A969761E01987F1C44F40074884720
:10097000002E824605DDBAF1780F06D0BAF1580F85
:1009800003D0B9F1000F10D01EE0B9F1000F02D072
:10099000B9F1100F18D1A969761E01987F1C24F4B3
:1009A000007488478246102002E0082000E00A20F8
:1009B000814609E0A96908FB0908761E01987F1C99
:1009C00044F4007488478246002E05DD49465046AF
:1009D00000F01AFD0028EDDAE96901988847A005C2
:1009E00002D46FF00100A8E7E00725D1600613D517
:1009F000600502D5C8F1000000E0404629680A1DE4
:100A00002A600968220501D5087015E0220701D582
:100A1000088011E008600FE02868011D2960006867
:100A2000210502D580F8008006E0210702D5A0F854
:100A3000008001E0C0F8008038467EE70B4910B521
:100A4000A1F17C020A4CC2E93712372106E000EB23
:100A5000104342F82130074B00FB03400B1EA1F16D
:100A60000101F4DC10BD0120E8E7000058F401208A
:100A7000E119D666CD0D010030B505460B462A4674
:100A800013F8014B12F8010B08B1A042F8D01CB1C9
:100A9000002802D06D1CF1E7284630BD40EA010372
:100AA000024630B59B0710D14FF0013400E008C278
:100AB00008C91D1B9D4315EAC41FF8D013F0FF01A0
:100AC00002F8011B0DD01B0AF8E711F8013B002BBF
:100AD00002F8013B05D011F8013B002B02F8013B65
:100AE000F3D130BD10B5431C02E010F8011B71B109
:100AF0008107FAD14FF0013202C88C1A8C4314EAF4
:100B0000C211F9D0C01A0A0603D0C01E10BDC01A07
:100B100010BD0A0401D0801E10BD0902FCD0401E89
:100B200010BD032A40F2308010F0030C00F0158055
:100B300011F8013BBCF1020F624498BF11F801CBE0
:100B400000F8013B38BF11F8013BA2F1040298BF45
:100B500000F801CB38BF00F8013B11F0030300F0AF
:100B60009784083AC0F0088051F8043B083A51F8DD
:100B700004CBA0E80810F5E7121D5CBF51F8043B58
:100B800040F8043BAFF30080D20724BF11F8013BCB
:100B900011F801CB48BF11F8012B24BF00F8013B2D
:100BA00000F801CB48BF00F8012B70474FF000025E
:100BB00000B5134694469646203922BFA0E80C5053
:100BC000A0E80C50B1F12001BFF4F7AF090728BF2E
:100BD000A0E80C5048BF0CC05DF804EB890028BFAA
:100BE00040F8042B08BF704748BF20F8022B11F0D3
:100BF000804F18BF00F8012B704700004FF0013CF8
:100C000050F8042B51F8043B9A4221D1A2EB0C037B
:100C1000934313EACC1317D150F8042B51F8043B3B
:100C20009A4215D1A2EB0C03934313EACC130BD1D8
:100C300050F8042B51F8043B9A4209D1A2EB0C0363
:100C4000934313EACC13DBD04FF00000704700BF92
:100C5000D01A01BAB1FA81F101F0180122FA01F0BB
:100C6000CB40C1F12001DBB2C0B2C01A2CFA01F3B3
:100C7000D11A914311EAC311E6D17047704770470A
:100C80007047704730B5B0F10A024FEA900E71F12B
:100C900000034EEA817EB0EB0E0061EB91014FEA5A
:100CA000101E4EEA017E10EB0E0041EB11114FEACF
:100CB000102E4EEA016E10EB0E0041EB11214FEAAF
:100CC000104E4EEA014E10EB0E0041EB1141401860
:100CD00041F100014FEAD00040EA41704FEAD101F2
:100CE00010EB80054FEA810444EA907444EB010460
:100CF0006D1944EB0404521BA3414FF0000348BF9D
:100D00000A3200D530BD401C41F1000130BD10B5A4
:100D100000F0F4FB006810BD10B5044600F0EEFBD7
:100D2000046010BD09684A0501D540B27047C90585
:100D3000FCD500B2704709684A0501D5C0B27047BA
:100D4000C905FCD580B270472DE9F0470D4699469C
:100D50009246044600F124080168880604D5E0693B
:100D600021F01001216000E00120A84201DD471BB5
:100D700000E00027A1697A1902EB0900081AA061B6
:100D80002078C00602D42046FFF7BCFB002608E00E
:100D9000D4E901211AF806009047206A401C761C0D
:100DA00020624E45F4DB2078C0060AD52046FFF7C6
:100DB000A9FB06E0D4E9012130209047206A401CBD
:100DC0002062381EA7F10107F4DC07E0D4E9012115
:100DD00018F805009047206A401C2062281EA5F1E3
:100DE0000105F3DC2046FFF7A3FB2078000602D5BF
:100DF0000220BDE8F0870120FBE711680268006A65
:100E0000530501D508700AE0D30501D5088006E036
:100E1000130603D5C217C1E9000200E008600120F3
:100E2000704770472DE9FF4F0C461E464FF0FF37C5
:100E30008BB0D2E90001DDF860800A908A46C1F3E8
:100E40000A5505B93D46002108464FF00000BAF1A9
:100E5000000F00F4400005DA00EB80004FF4400181
:100E600001EA50004FEA9059B9F1010F00DDB9468F
:100E70000A9850EA4A000ED044F61050A5F2FF3509
:100E800045432F14B8F1000F1ED07542291E1EDDF8
:100E9000C9F100021CE0B8F1010F4FF0000001D0D1
:100EA000302103E0F24305E02154401CB042FBDB5B
:100EB00030460022002121540B99C1F80880C1E975
:100EC00000200FB0BDE8F08FBD1B6D1CDEE74A4669
:100ED00000DA694206A800F0ADFE06AB93E8070011
:100EE00003AB83E8070050460A9900F074FF8DE8D1
:100EF0000700A0F500501F3800900398002D0ADD70
:100F000042F21F014A460844002303A903906846A1
:100F100001F0DDF909E0A0F500504A461F38002332
:100F200003A90390684601F0E7F98DE80700000483
:100F3000000C03D04FF0FF30410800E01046B8F13C
:100F4000000F03D00022009215461EE0751E05D446
:100F5000FFF798FE303262556D1EF9D5B346012277
:100F6000084302D000227F1C04E02078302801D101
:100F700000227F1E002A099784D01DE0112D07DA78
:100F8000FFF780FE303262556D1C50EA0102F5D148
:100F9000084302D00098C8B10EE00021681E05E0A9
:100FA000235C625C63542254401E491C8142F7DB7F
:100FB000AB46A81B401E0990002004F80B000B98BC
:100FC000099AC0F80880C0E9002B7AE711264FF093
:100FD000000857E72DE9F04F88460446D21D22F05D
:100FE000070191B0D1E90001CDE90A010EF02DFC15
:100FF00002460B98C00F01D02D2007E02068810722
:1010000001D52B2002E0202101EAC000032A09902B
:1010100001D0072A05DB03464146204600F0FAFBD3
:101020000BE12078800601D5E06900E00620B8F1E8
:10103000650F814606D0B8F1660F18D0B8F1670F7A
:1010400070D131E00020B9F1110F009001DB1123C4
:1010500001E009F101030AAA01A90CA8FFF7E2FEC9
:10106000DDE90C70002609F10105834647E0012007
:101070004B4600904FF000470AAA01A90CA8FFF7C1
:10108000D1FEDDE90DB00C995D46002610B909F1DD
:1010900001000D18B9EB050003D4C0F1FF3609F1CA
:1010A0000105A5EB09002BE0B9F1010F01DA4FF0C2
:1010B00001090020B9F1110F0090484601DD11230C
:1010C00000E003460AAA01A90CA8FFF7ABFEDDE980
:1010D0000C704D4600268346207800070AD4AB45A5
:1010E00000DA5D4601A8012D04DD411911F8011C4B
:1010F000302907D04F4502DA17F1040F04DA012036
:1011000082460FE06D1EEEE7002F02DCED1B3E4431
:1011100003E0781CA84200DD7D1CB81B00F1010A29
:101120004FF000472078000703D4AA4501DB4FF0B9
:10113000FF3A0021B7F1004F0DF143088DF843103D
:1011400024D002202B23002F01DA7F422D230A21F5
:10115000021EA0F1010000DC5FB197FBF1FC97FBE0
:10116000F1F201FB1C7C17460CF1300C08F801CDA4
:10117000EEE7A8F1010003702188090501D545219A
:1011800000E06521A0F1010800F8011C09980FA9F1
:10119000A1EB0807FF1D00B10120411901EBEA7026
:1011A000A1693844081A401EA0612078C00602D404
:1011B0002046FFF7A7F9099828B1D4E90121904703
:1011C000206A401C20622078C00622D52046FFF706
:1011D00099F91EE0002E04DBB34502DD01A8805D15
:1011E00000E03020D4E901219047206A401C2062B1
:1011F000761CAAF101005FEA000A0AD100F07AF930
:10120000C0680168405CD4E901219047206A401C15
:101210002062281EA5F10105DCDC07E0D4E90121EC
:1012200018F8010B9047206A401C2062381EA7F175
:101230000107F3DC2046FFF77BF9032011B041E6FC
:1012400001694A1C02610878704700B58FB0CDE98A
:1012500001310021059105497944CDE9031011467A
:101260006846FFF763FA0FB000BD0000E5FFFFFF1F
:101270000A6802F8010B0A607047D1E900239A421C
:1012800002D2531C0B601070704710B5436913B144
:10129000AFF3008001E0FFF75CF9012010BD127888
:1012A00000F124010A7000224A700122EDE7116862
:1012B0004FF0FF32E9E70000074B70B50D467B4465
:1012C000FFF7C3FF0446284600F026FD10B14FF09B
:1012D000FF3070BD204670BD574501002DE9FF5F0E
:1012E00015468A460446DFF8AC80F8440027D8E962
:1012F00000103E46CDE9001010E03AF816106A469C
:1013000002A800F00DFD411C07D02178890603D505
:10131000E269391891420DD80744761C207880067E
:1013200002D5E069B84205DDAE42E6DB3AF81600C8
:101330000028E2D1A069C01BA0612046FFF7E2F8B7
:10134000D8E90010CDE90010002017E03AF8181095
:101350006A4602A800F0E4FCB0F1FF3F81460BD0E2
:1013600000250DF1080B05E0D4E901211BF805006B
:1013700090476D1C4D45F7D308F10100B0428046FF
:10138000E4DB206A384420622046FFF7D1F8BDE84C
:10139000FF9F00003AD6010030B4002100F1240480
:1013A00008E002F00705D208303542EA4372DB0854
:1013B0006554491C52EA0305F3D10468002310A2C6
:1013C000250707D5A40600D421B1C46901230DA2C5
:1013D000641EC46130BCFFF7B7BC10B5044621469B
:1013E0001068FFF7A8FC02462046BDE81040002325
:1013F000D2E7D21D22F00701D1E90023CCE700009B
:1014000000000000300000003A2800D2303820F000
:101410002002412A01D3A2F13700884201D34FF0C4
:10142000FF30704702681144137801601846704716
:10143000D160054979445161044979441162002120
:101440001161114600F03CBAEDFFFFFFC70000003C
:10145000426842B1016811F8013B23B1521EC0E954
:101460000012184670470121C160881E704742680B
:101470005AB1C368016843B983688B4205D0491EDD
:10148000521CC0E90012002070474FF0FF30704737
:1014900010B5203AC0F00B80B1E81850203AA0E80F
:1014A0001850B1E81850A0E81850BFF4F5AF5FEA43
:1014B000027C24BFB1E81850A0E8185044BF18C9F6
:1014C00018C0BDE810405FEA827C24BF51F8043B9D
:1014D00040F8043B08BF7047D20728BF31F8023BF1
:1014E00048BF11F8012B28BF20F8023B48BF00F885
:1014F000012B704700487047E0F401200048704716
:10150000C0F4012010B5044600F054FC0068005DF2
:1015100000F0010010BD00002DE9F04F04460D461B
:10152000D21D22F0070089B0D0E90097484639461D
:101530000EF08BF90246F80F01D02D2307E020684A
:10154000810701D52B2302E0202101EAC0038DF899
:1015500020300BB1012000E00020032A824601D098
:10156000072A04DB2946204600F054F93FE12078A1
:10157000800601D40D2500E0E569C7F30A560D2D5C
:1015800049DA00214FEA175B08464FF00000002FB0
:1015900000F4400007DA00EB80004FF4400100EB5C
:1015A000D07001EA60008115012901DD4FF0FF31A3
:1015B00000224FEA850CBCF1180F06D31346ACF19C
:1015C00018004FF08052C24003E04FF4801323FA1A
:1015D0000CF30CF10C0CBCF1200F04D3ACF1200C7B
:1015E00009FA0CF001E007FA0CF000294FF000486E
:1015F00001DD18B90FE00ED140450CD319EB0209FB
:101600005F4121B9404502D19F4329EA0209BBEB62
:10161000175F00D0761C2088000502D57B487844EF
:1016200002E07A487844193808AA302302F80A30D0
:10163000037C0AF10101002E0AF1020A53546A46A2
:1016400002DC4FF0300101E04FF031014FF00108B2
:101650008DF8001002D0A6F2FF3603E059EA4701E8
:1016600000D06B4E002D02DC2178090704D54FF025
:1016700002082E218DF80110C44600210BE0C7F3AB
:1016800003433F01C35C491C6D1E02F80830052965
:1016900008F1010801DA002DF1DC00210CE000EB7B
:1016A0001973491C1B786D1E082902F808304FEA8F
:1016B000091908F1010801DA002DF0DC21688B0618
:1016C00002D516E0A8F10108E04505DD02EB0803AC
:1016D00013F8013C302BF5D0B8F1000F09DD02EB17
:1016E000080313F8013C2E2B03D1090701D4A8F1FC
:1016F0000108002D05DD3E2102F808106D1E08F1DD
:101700000108407C002E02F8080008F1010804DA04
:101710002D20764202F8080002E02B2002F8080093
:101720000A214FF47A70864208F101080BDB96FB20
:10173000F0F3303302F8083096FBF0F308F10108BB
:1017400000FB136601E0642E0CDB642096FBF0F3D3
:10175000303302F8083096FBF0F308F1010800FB83
:10176000136601E00A2E06DB96FBF1F0303002F83A
:10177000080008F1010896FBF1F001FB1060303021
:1017800002F80800A16908F1010808EB050202EB64
:101790000A00081AA0612078C00602D42046FEF78D
:1017A000B1FE216A08AE01EB0A00206204E0D4E930
:1017B000012116F8010B9047BAF1010AF7D22078FF
:1017C000C00602D52046FEF79DFE6E4609E016F8DB
:1017D000010B3E280FD0D4E901219047206A401C1C
:1017E0002062B8F10108F2D22046FEF7A1FE09B04E
:1017F0000320BDE8F08F206A2844206203E0D4E98A
:101800000121302090476D1EEBD3F8E761D4010031
:1018100002FCFFFF2DE9F0411F4604460326016844
:10182000072A01F4006004DB08B116A505E016A53F
:1018300003E008B115A500E015A521F01000206017
:10184000A069C01EA0610FB1401EA0612046FEF736
:1018500059FE4FB1D4E9012138469047206A401C17
:101860002062C01C206206E0206AFAE7D4E9012168
:1018700015F8010B9047761EF8D22046FEF758FE69
:10188000BDE8F0814E414E006E616E00494E46004B
:10189000696E660010B5436913B1AFF3008001E0D3
:1018A000FFF71CFD012010BD128800F12401828485
:1018B0000022C2840122EDE711684FF0FF32E9E710
:1018C0002DE9F34F4FF0000A0C4656468DB001202B
:1018D0000C9001F10C000B9062690B98012190476C
:1018E000051E2DD0252D2CD0216A8847C0B16269F4
:1018F0000B9801219047216A88470028F7D1626937
:10190000411E0B98904700E0761CA1690D9888470E
:10191000216A88470028F7D1E1690D988847DBE7FD
:10192000A1690D988847A842074601D1761CD3E7E4
:10193000E1690D9888477F1C02D1BAF1000F6FD082
:101940006BE162690B9800273D46394690472A288B
:1019500004D162690B98012190470125DFF8D082FC
:1019600062690B9801219047A0F130010A290AD23F
:101970004745E5DC07EB870100EB4107303FDFD44B
:1019800045F01005ECE7E90601D46FF000476C283C
:101990000AD04C2814D0682815D06A280DD0742895
:1019A0001CD07A281AD01DE062690B98012190475B
:1019B0006C2802D045F0040514E045F002050DE066
:1019C00045F020050AE062690B98012190476828DC
:1019D00002D045F0080505E045F4006562690B9802
:1019E00001219047C4E9015765283DD019DC5828EA
:1019F0007AD00CDC452837D004DC252826D04128B5
:101A00009ED131E046282FD0472899D12CE05B2881
:101A100077D0612828D063287CD0642823D15AE06D
:101A2000F6E06F2848D008DC66281DD067281BD058
:101A3000692821D06E2816D127E0702845D0732858
:101A400068D0752847D078280DD14DE0A1690D9850
:101A50008847252805463FF469AFE1690D98884716
:101A60006D1C3FF46AAFD8E00D9923466A466FF0CB
:101A70000100AFF30080C5E045F0400023464FF081
:101A800000026060A80736D43EE0E8077FF447AF65
:101A90002068011D21600068290501D506701BE73B
:101AA000290701D5068017E7A90703D5F117C0E973
:101AB000006111E706600FE745F0400023464FF054
:101AC00008026060A80716D41EE040F60E0125EA61
:101AD0000100606016E045F0400023464FF00A0226
:101AE0006060A80707D40FE045F040006060A807D9
:101AF00008D5234610220D996FF00100AFF3008046
:101B000080E007E0102223460D996FF00100FEF7F8
:101B1000EFFE77E04FF0000963284F46C8464B467A
:101B2000CB4602D05B2806D038E0E80601D401207D
:101B3000A060012732E06269D4F80CB00B98012153
:101B400090475E2807D14FF0010949466269D4F8F1
:101B50000CB00B989047216939B900210A4603ABB4
:101B600043F82120491C0829FADBD8B3216949B37D
:101B700008F1010862690B98012190475D28F4D1B2
:101B8000B9F1000F09D0002003A951F82020D24359
:101B900041F82020401C0828F7DB03AB206900280F
:101BA00020794FEA40701ED05B462246CDF8008077
:101BB000CDE901970D9900286FF0010020DAAFF30D
:101BC00000801FE0C11703AA00EBD1614B1121F087
:101BD0001F0102EB8302411A13680120884003436E
:101BE0001360C7E719E00D99224600286FF0010045
:101BF000009702DAAFF3008004E0AFF3008001E069
:101C0000AFF3008000280ADA401C06D10C9820B1FE
:101C10004FF0FF300FB0BDE8F08F5046FAE7E9070C
:101C200001D10AF1010A064400200C9054E600009C
:101C3000CCCCCC0C2DE9F047814616468AB035480D
:101C400078440DC88DE80D0032487844801C03AC00
:101C50000DC884E80D0041F69B300844372190FB05
:101C6000F1F290FBF1F5A5F1800501FB12041B3C9C
:101C700002D56442012000E00020DFF898A08046F1
:101C80000027FA44AAF1BE0A0EE0E0070AD0324665
:101C9000684607EB470101230AEB810100F02CFBAA
:101CA0008DE8070064107F1C002CEED1194F7F4493
:101CB000AE3F19E0E80715D007EB04100DF1180A44
:101CC00090E80E008AE80E00C068F04201D1981931
:101CD00008903246012306A903A800F00DFB03ABD0
:101CE00083E807006D10641C002DE3D14FF0010361
:101CF00032466946B8F1000F03A802D000F0E7FAB7
:101D000001E000F0F9FAC9E90001C9F808200AB0B9
:101D1000BDE8F087D0CE0100007B00F08000704766
:101D200070B516460C46054600F044F8036893F873
:101D30000101012806D0FF2C0FD8185D68B10120E1
:101D40002C7070BDD3F807013246214603F2071309
:101D500003442846BDE8704018474FF0FF3070BD7F
:101D600000487047C0F401207546FFF7F9FFAE4602
:101D700005006946534620F00700854618B020B597
:101D8000FEF7FAFABDE820404FF000064FF00007DA
:101D90004FF000084FF0000B21F00701AC46ACE813
:101DA000C009ACE8C009ACE8C009ACE8C0098D4680
:101DB0007047000010B5FFF79DFB001D10BD00BF70
:101DC000D16F010010B50446AFF300802046BDE896
:101DD0001040FEF79ABA5FEA400C08BF91F0000F7E
:101DE0004FEA8C234FEAC12243EA51514FEA1C507B
:101DF00018BF00F5F0404FEA300018BF41F0004135
:101E00005FEA6C5C00F02980BCF1FF3F08BF40F046
:101E100080407047130C06BF12044FF0100C4FF0B7
:101E2000000C130E04BF12020CF1080C130F04BFB8
:101E300012010CF1040C930F04BF92000CF1020C80
:101E4000D30F04BF52000CF1010C11464FF00002F9
:101E5000A0F11F00A0EB0C00704711F0004F08BF6D
:101E6000704731F000413FF4D5AF0B0C06BF0904B9
:101E70004FF0100C4FF0000C0B0E04BF09020CF1D8
:101E8000080C0B0F04BF09010CF1040C8B0F04BFED
:101E900089000CF1020CCB0F04BF49000CF1010CBE
:101EA000CCF12003A0EB0C0022FA03F302FA0CF2AF
:101EB00041EA030100F10100704720F07F4C80EA05
:101EC000030023F07F47ACEB070303F57C5300F0DE
:101ED000004003F1FF032DE980494FEA154B09B497
:101EE0004FEA144325EA0B4E24EA03480FF2042676
:101EF00006EB132749083E785FEA320203FB0667C8
:101F0000C7F5000707FB06F64FEA54374FEAD646F7
:101F100006F1020607FB066CCCF1005C4FEA1C4799
:101F20002CEA074C07FB06F40CFB06F504EB154600
:101F30004FEA961634BF00204FF000404FEAD137E9
:101F400006FB07FC4FEA1C4C0CFB0BF7D21B03FBF8
:101F50000CF761EB07010CFB0EF7B0EB074072EBDF
:101F600017420CFB08F734BFA2EB0742B2EB074263
:101F700061EB17414FEA0C444FEA910706FB07FC5F
:101F80004FEA1C4C0CFB0BF7B0EBC74072EB57321F
:101F900003FB0CF734BFA2EBC742B2EBC74261EBC5
:101FA00057310CFB0EF7B0EBC70072EB57720CFB0E
:101FB00008F734BFA2EBC702B2EBC70261EB57715F
:101FC000039F4FEA816141EA921104EBCC044FEA8E
:101FD000D1374FEA826206FB07FC42EA90124FEAD1
:101FE00080604FEA1C4C0CFB0BF7D21B03FB0CF779
:101FF00061EB07010CFB0EF7B0EB074072EB1742E9
:102000000CFB08F734BFA2EB0742B2EB074261EBCF
:1020100017414FEA8C554FEA910704EB9C2406FBCD
:1020200007FC4FEA1C4C0CFB0BF7B0EBC74072EB04
:10203000573203FB0CF734BFA2EBC742B2EBC742E7
:1020400061EB57310CFB0EF7B0EBC70072EB577228
:102050000CFB08F734BFA2EBC702B2EBC70261EB7F
:10206000577115EB4C254FEA816141EA92114FEA15
:1020700082624FEAD13742EA901206FB07FC44F134
:1020800000044FEA80604FEA1C4C0CFB0BF7D21B9C
:1020900003FB0CF761EB07010CFB0EF7B0EB0740FD
:1020A00072EB17420CFB08F734BFA2EB0742B2EB0E
:1020B000074261EB174115EB1C154FEA813141EAEC
:1020C00092414FEA823242EA90424FEA80304FEA30
:1020D0000C7644F1000448EA03434EEA0B484FF003
:1020E000000EB2EB080C71EB030724BF62463946C1
:1020F0004EEB0E0E4FF0000B0018524149414BEBD6
:102100000B0BB2EB080C71EB03077BF1000B24BF48
:10211000624639464EEB0E0E4FF0000B001852414E
:1021200049414BEB0B0BB2EB080C71EB03077BF156
:10213000000B24BF624639464EEB0E0E51EA0207F1
:1021400018BF46F0010616EB0E7655F1000254F169
:10215000000103D5BDE88901BDE80088BDE889011B
:10216000BDE80048B619524141EB0101A3F101035A
:10217000704780807F7E7D7C7B7A797877767675F4
:102180007473727171706F6E6E6D6C6C6B6A6A696C
:102190006868676666656464636362616160605F06
:1021A0005F5E5E5D5D5C5C5B5B5A5A59595858577F
:1021B00057565655555554545353525252515150E7
:1021C00050504F4F4F4E4E4D4D4D4C4C4C4B4B4B3A
:1021D0004A4A4A4949494848484747474746464680
:1021E00045454544444444434343434242424241BB
:1021F0004141002B9C4630D477002BD01CB54FEAD0
:10220000370703B44FF010004FF01001BAF1000F80
:1022100006D0BCF1000FDCBF40F0080040F0080120
:102220004FF000000FBCBDE810400BF1010BBBF1FB
:10223000010F08BF5FEA170722BF12F1010211F177
:1022400001014FF0004143F1000300F0004043EA78
:1022500000007047F9D35708D0E746EA064613F165
:10226000400F4FEA16461FDD13F1200FDFBF164364
:102270000A46002120335B42BED0C3F1200746EA64
:10228000064602FA07F74FEA164646EA0706C3F182
:10229000200722FA03F201FA07F721FA03F14FF0BF
:1022A000000342EA0702A7E746EA020646EA0646B4
:1022B0004FEA164646EA0106BCBF46EA0646360C19
:1022C0004FF000034FF000024FF0000194E72DE9BA
:1022D000804C9A46934670B491E8380007C831EABA
:1022E000400C48BF34EA430C03D5FFF7E6FDFFF787
:1022F00080FFF0BCBDE8008C2DE9804C9A469346E7
:1023000070B491E8380007C810F0804F08BF13F090
:10231000804F03D100F005F8FFF76BFFF0BCBDE87C
:10232000008C20F07F4780EA030023F07F4C07EB0E
:102330000C03A3F57C5300F00040A3F1FE0392F0E0
:10234000000F00F0B38095F0000F00F077802DE9CA
:1023500001494FEA11404FEA144621EA004800FBC8
:1023600006FC24EA064708FB06F607FB08F800FB14
:1023700007F718EB06484CEB164C4FEA124B18EBDC
:1023800007484FEA15464CEB174022EA0B4E0BFB71
:1023900006FC25EA06470EFB06F607FB0EFE0BFBC6
:1023A00007F71EEB064E4CEB164C4FF000061EEBEB
:1023B000074E4CEB174B18EB0B0840F1000018EBE5
:1023C0000E0B58EB000840F100008F1A4FF000018F
:1023D0003CBFC943661B14BFB5EB040C00213CBFD6
:1023E000C943F61B4FEA17444EEA8E0E27EA04450E
:1023F0004FEA1C4704FB07622CEA074C05FB07F772
:102400000CFB05F604FB0CFC16EB074642EB1742EF
:1024100016EB0C4642EB1C421BEB060658EB020285
:10242000414146EA9E0601D5BDE80189B6195241EF
:1024300041EB0101A3F10103BDE801894FEA144515
:102440004FEA114724EA054621EA074C05FB07F449
:1024500006FB07F70CFB06F105FB0CFC11EB074133
:1024600044EB17444FEA124711EB0C4144EB1C4478
:1024700022EA074C05FB07F206FB07F70CFB06F602
:1024800005FB0CFC16EB074642EB174216EB0C461D
:1024900042EB1C456A1854F1000148BF7047B61959
:1024A000524141EB0101A3F10103704795F0000F88
:1024B00037D04FEA11424FEA144721EA024624EA94
:1024C000074C02FB07F106FB07F70CFB06F402FBC7
:1024D0000CFC14EB074441EB17414FEA154714EB92
:1024E0000C4441EB1C4125EA074C02FB07F506FBB7
:1024F00007F70CFB06F602FB0CFC16EB074645EB58
:10250000174516EB0C4645EB1C42121951F1000120
:1025100048BF7047B619524141EB0101A3F10103D5
:1025200070474FEA14454FEA114724EA054621EA6D
:10253000074C05FB07F106FB07F70CFB06F24FF013
:10254000000605FB0CFC12EB074241EB174112EBB6
:102550000C4251EB1C4148BF7047921841EB0101FE
:10256000A3F101037047000055494A6822F4403244
:102570004A604A6843681A434A600268526822F413
:10258000807203685A6002685368026943EA022253
:1025900003685A600268526822F0407203685A6009
:1025A0000268526883681A4303685A600268926836
:1025B00022F4006203689A6002689268C3681A4352
:1025C00003689A603F4B826A9A4218D00268926808
:1025D00022F0706203689A6002689268836A1A4304
:1025E00003689A600268926822F0405203689A6019
:1025F00002689268C36A1A4303689A600BE0026833
:10260000926822F0706203689A600268926822F011
:10261000405203689A600268926822F002020368DE
:102620009A6002689368027E43EA420203689A60F5
:102630002022125CA2B10268526842F40062036870
:102640005A600268526822F4604203685A60026865
:102650005368426A521E43EA423203685A6005E0F8
:102660000268526822F4006203685A600268D26A03
:1026700022F470020368DA620268D36A828B521E07
:1026800043EA02520368DA620268926822F4007236
:1026900003689A600268936890F8302043EA422207
:1026A00003689A600268926822F4806203689A6004
:1026B00002689368426943EA822203689A6070471D
:1026C000002301400100000F10B588B0002203A9CB
:1026D0001A4803F071FB002202A9184803F046FBD8
:1026E0009DF80E003C3016490968401A3C21B0FBA9
:1026F000F1F201FB120413480078E0B1052C1ADB5B
:1027000011A02021CDE90010144802880B46462173
:102710000A2009F0D1FA0CA02021CDE900100F48C1
:1027200002880B4623210A2009F0C6FA00F042F87D
:1027300000200449087008B010BD0000CC03002040
:102740000000002004000020202020202020202045
:102750002020202020202020000000003C04002019
:1027600000B587B000BF002001901048006840F01D
:1027700020000E4908600846006800F02000019023
:1027800000BF00BF88150290012003900490032031
:10279000059002A9064802F059F800224FF4807112
:1027A000034802F053F907B000BD00003038024082
:1027B0000014024010B500224FF48071014802F06D
:1027C00045F910BD0014024010B501221102024863
:1027D00002F03CF910BD00000014024000BFFEE70B
:1027E00070B58EB01448006808B10EB070BD0022FC
:1027F00009A9124803F0E0FA9DF824409DF82560ED
:102800009DF82650AEB9A5B90D480078844210D085
:102810000B48047024B90BA101A8FDF75DFE04E08C
:1028200022460CA101A8FDF757FE01A80FF030F9D0
:1028300000BF00BFD9E7000070030020CC030020D8
:102840005C000020303A2F564F4943452F32342E3A
:1028500077617600303A2F564F4943452F25303265
:10286000642E77617600000070B50446A56B28469B
:1028700001F000FD0120287170BD70B50446A56B04
:10288000284601F0C3FC0120287170BD70B50546D3
:10289000AC6B206940F004002061204601F0ECFCA4
:1028A0000120207170BD70B50546AC6B206940F009
:1028B00004002061204601F0ABFC0120207170BDB6
:1028C00070B50446A56B284601F0D5FC70BD70B507
:1028D0000446A56B284601F09AFC70BD2DE9F04135
:1028E0002DED048B82B0C848C06820B902B0BDECA1
:1028F000048BBDE8F081C448008A10B90120C249A8
:102900000882C14890ED010AB5EEC00AF1EE10FA56
:1029100003D89FEDBE0A80ED010ABB4890ED020A84
:10292000B5EEC00AF1EE10FA03D29FEDB90A80EDC0
:10293000020AB848007808B1B74800E0B748044632
:10294000B148D0ED020A9FEDB61A80EE810ADFEDA4
:10295000B50A20EE208A9FEDB30AB4EEC08AF1EEEC
:1029600010FA03DD9FEDAF0AB0EE408A4FF4006528
:10297000A548007800287CD0012804D002284AD03D
:10298000032877D184E0A048008A00EE100AB8EE50
:10299000400ADFEDA50A80EE801AB0EE419A4FF0B2
:1029A000000833E0B0EE000AC8EE009A00EE908A0C
:1029B000F8EEE00A69EE200AB0EE600A0DF05CF86D
:1029C000F0EE400A00EE105AB8EE400A09EEA00AF6
:1029D000F0EE408A9FED930AF4EEC08AF1EE10FA11
:1029E00003DD9FED900AF0EE408AF5EEC08AF1EE2D
:1029F00010FA03D29FED860AF0EE408ABCEEE80A98
:102A000010EE100A24F8180008F101087E48008A28
:102A10004045C7DCA6E0002035E07B4A118A01EB87
:102A2000D172521082420ADDB0EE000AC8EE000AEE
:102A300000EE105AB8EE400A30EE800A09E0B0EE1F
:102A4000000AC8EE000A00EE105AB8EE400A30EE56
:102A5000600ABCEEC00A10EE102A24F8102034F8E8
:102A60001010B1F5805F03DB40F6FF7124F8101001
:102A700001E06DE06BE034F81010002902DA00216B
:102A800024F81010401C6049098A8142C5DC69E0C5
:102A90005D4A108A00EBD072511001B9012100206B
:102AA00050E088421EDAB0EE000AC8EE000A00EEDE
:102AB000105AB8EE400A70EE600A00EE100AB8EE46
:102AC000C00A28EE001A00EE101AB8EEC00AC1EED5
:102AD000001A30EEA10ABCEEC00A10EE102A24F84B
:102AE00010201EE0B0EE000AC8EE000A00EE105AF8
:102AF000B8EE400A70EE800A421A00EE102AB8EED4
:102B0000C00A20EE081A00EE101AB8EEC00AC1EE94
:102B1000001A30EEE10ABCEEC00A10EE102A24F8CA
:102B2000102034F81020B2F5805F03DB40F6FF720E
:102B300024F8102034F81020002A02DA002224F8A9
:102B40001020401C304A128A8242AADC0AE000BFF0
:102B5000002002E024F81050401C2B49098A8142D1
:102B6000F8DC00BF00BF284890ED010ADFED2F0A16
:102B700060EE200A008A00EE100AB8EE400A20EE4D
:102B8000800ABCEEC00A10EE107A07B9012700EEE9
:102B9000107AB8EE400ADFED260A80EE801ABCEE0D
:102BA000C10A10EE106A022E00D20226B6F5803F4E
:102BB00001D34FF6FF7600201E490968886200BFE6
:102BC000701E1C490968C8621A49C86000BF00210C
:102BD000194801F003FC0C48C4600E48007808B99D
:102BE000012000E000200B490870002000900648FA
:102BF000038A0021C268104801F054FB08B100F0BC
:102C0000C7FF00BF72E600008C000020CDCCCC3D99
:102C1000000000007D000020B40D0020B41500204D
:102C20003333534000F07F45DB0FC94000007A4446
:102C3000A037A04C281E0020B41D002000B58BB08A
:102C4000002009900A90142104A8FDF7AFFF6C48FA
:102C50006C4908606C486D4908606A4800686C49B6
:102C6000C86000BF002001906A48006840F0010081
:102C7000684908600846006800F00100019000BF44
:102C800000BF00BF0020019062481030006840F093
:102C900000506049103108600846006800F000509C
:102CA000019000BF00BF00BF00200190594800689C
:102CB00040F40010574908600846006800F400100E
:102CC000019000BF00BF00BF0020019051481030AC
:102CD000006840F010004F49103108600846006855
:102CE00000F01000019000BF00BF102004900320EE
:102CF00005900020069004A9474801F0A7FD474829
:102D000047490860084601F0B8FA08B100F040FFF2
:102D10000420099000200A90002209A9404801F0EF
:102D200078FA08B100F034FF3E483F4908604FF0A0
:102D30006060486040213C4881600021C1604FF4E0
:102D40008061016149004161890081614911C1616E
:102D5000490201620021416201F04EFC08B100F01D
:102D600017FF00BF30482E49886008462E49886307
:102D700000BF2E482E4908600020486000212C48E2
:102D8000816040F24731C16080218161002211469B
:102D9000362002F047F9362002F034F9244804F0D6
:102DA00097FA08B100F0F4FE002002900390202072
:102DB00002900020039002A91D4804F02FFA08B1E8
:102DC00000F0E6FE1248008AB0F5006F01DD00F069
:102DD000DFFE18480E49C860002006E04FF49671E7
:102DE0000B4AD26822F81010401C0949098A814216
:102DF000F4DC00F021F8FFF771FD0BB000BD00001E
:102E0000B40D002080000020B415002084000020B4
:102E10008C00002030380240000002400074004066
:102E2000B41D002088600240C81D00200010004032
:102E3000281E0020701E00200EB5092269460020C1
:102E400000F082FE29489DF800100170DDF80110A5
:102E500041600146DDF805008860084600780328D7
:102E600001DD01200870214890ED010A10EE101AD2
:102E700008460CF015FD90B91C4890ED010ADFEDF5
:102E80001C0AB4EEE00AF1EE10FA08D390ED010A44
:102E9000F0EE000AB4EEE00AF1EE10FA04DDB7EE4F
:102EA000000A124880ED010A104890ED020A10EE67
:102EB000101A08460CF0F4FC90B90C4890ED020A88
:102EC000F6EE000AB4EEE00AF1EE10FA08D390ED47
:102ED000020AF0EE000AB4EEE00AF1EE10FA04DDA8
:102EE000B7EE000A014880ED020A0EBD8C000020FA
:102EF000CDCCCC3D10B5044634B1012C4DD0022CC4
:102F000072D0032C0AD10AE046480078401C032105
:102F100090FBF1F201FB12004249087080E0414849
:102F2000007820B101280ED0022832D11EE03E499F
:102F30000978481CC11700EB91718910A0EB810141
:102F4000394A117025E0384890ED010AF0EE000A88
:102F5000B4EEE00AF1EE10FA07D290ED010ADFEDCF
:102F6000330A30EE200A80ED010A12E02E4890ED7F
:102F7000020AF0EE000AB4EEE00AF1EE10FA07D20F
:102F800090ED020ADFED290A30EE200A80ED020AF8
:102F900000BF00BFFFF7A2FC42E02248007820B14A
:102FA00001280ED0022833D11FE01F490978C81C20
:102FB000C11700EB91718910A0EB81011A4A1170C1
:102FC00026E0194890ED010ADFED180AB4EEE00A98
:102FD000F1EE10FA07DD90ED010ADFED140A30EE94
:102FE000600A80ED010A13E016E00F4890ED020A36
:102FF000F6EE000AB4EEE00AF1EE10FA07DD90ED0D
:10300000020ADFED0A0A30EE600A80ED020A00BF14
:1030100000BFFFF763FC03E001200549087000BF13
:1030200000BF10BDA00000208C000020CDCCCC3D06
:103030008800002010B50021074801F0CFF90748AB
:1030400004F01CFAFFF74AFC044804F075F908B1D3
:1030500000F09EFD10BD0000B41D0020281E0020C1
:1030600010B5044804F00AFA0021034801F0B6F94B
:1030700010BD0000281E0020B41D002000B59BB02C
:10308000FE48008880B20D90FD48007800283AD0B4
:103090004FF6FF7005F0CAF91F20F8490860F9A043
:1030A00020210B46C822CDE900100A214FF496706A
:1030B00008F002FE322340F2163219460A2005F0CB
:1030C0007FFA4FF4D7734FF4C8723221104605F0DF
:1030D00077FA4FF4D77340F2163219460A2005F0FA
:1030E0006FFA0020E5490860EAA018210B464FF46A
:1030F0003972CDE900104FF4E1711E2008F0DCFDBB
:103100000020DF4908700020DC4908604FF6FF709E
:1031100027234FF443720F2100904FF4167005F0EF
:10312000A9FB4FF47840D5490860E248007820B107
:1031300001280ED0022824D117E0DFA018210B4669
:10314000B422CDE900100F214FF4167008F0B4FD41
:1031500017E0DDA018210B46B422CDE900100F21A5
:103160004FF4167008F0A8FD0BE0DBA018210B4609
:10317000B422CDE900100F214FF4167008F09CFD29
:1031800000BF00BF0020BD490860D7A018210B4632
:103190007822CDE9001046211E2008F08DFD4FF663
:1031A000FF708623E8226E210090282005F062FB44
:1031B000C048007870B94CF2186028234FF4B972F7
:1031C00064210090192005F055FB4FF47840AB497D
:1031D000086002E00020A9490860C648007801287C
:1031E00004D002280DD0032821D115E0C2A0182157
:1031F0000B467822CDE900106E21282008F05CFDF6
:1032000020E0BFA018210B467822CDE900106E21E6
:10321000282008F051FD15E0BBA018210B467822AC
:10322000CDE900106E21282008F046FD0AE0B9A083
:1032300018210B467822CDE900106E21282008F0D5
:103240003BFD00BF00BF4FF6FF70D623E822BE2132
:103250000090282005F00EFB002088490860AEA0F1
:1032600018210B467822CDE9001096211E2008F087
:1032700023FD9048007801280ED14CF218602823D5
:103280004FF4B972B4210090192005F0F3FA4FF40D
:1032900078407A49086002E0002078490860954843
:1032A0004068099016F044FACDE90A019DED0A0B39
:1032B00053EC102B9AA10EA8FDF70EF90EA81821B9
:1032C0000B467822CDE90010BE21282008F0F4FC3E
:1032D0004FF6FF704FF49373E8224FF4877100901C
:1032E000282005F0C7FA0020644908608FA0182143
:1032F0000B467822CDE90010E6211E2008F0DCFC08
:103300006C48007802280FD14CF2186028234FF443
:10331000B9724FF482710090192005F0ABFA4FF4A6
:1033200078405649086002E000205449086071481E
:103330008068099016F0FCF9CDE90A019DED0A0BB1
:1033400053EC102B7BA10EA8FDF7C6F80EA8182190
:103350000B467822CDE900104FF48771282008F041
:10336000ABFC6448007800287ED04FF4E1700C90EC
:10337000F0200B9096200A90400009904FF6FF70C5
:1033800000900A98089000EBD07041100B98084408
:10339000401E80B206900A98079000EBD070411052
:1033A0000B98401A401C80B2049009990C9808446C
:1033B000401E80B205900C98401C039004A90EC9D1
:1033C00005F058FA00202D4908600B9808900999DB
:1033D0000C98084407900B9806900C98059006A945
:1033E0000EC905F0EDF80A98089000EBD070411076
:1033F0000B98084406900A98079000EBD070411093
:103400000B98401A80B204900C98059003900246E5
:10341000069B049905F0D4F848A11020CDE90001DD
:103420000A98089000EBD07041100B98401A0F38A2
:1034300080B207900C981E3880B210233C22069070
:10344000079908F039FC3EA01021CDE900100A9838
:10345000089000EBD07041100B9808440F3880B2F0
:1034600007900C981E3800E065E280B210233C22E1
:103470000690079908F020FC32A067E020000020A9
:103480007C00002044414320574156452047454E8B
:103490000000000055503A4D6F646520204B45599F
:1034A000303A496E6320204B4559313A44656320D8
:1034B00020000000A00000205B57415645205345E6
:1034C0004C4543545D0000005B4652455120414449
:1034D0004A5553545D0000005B5650502041444A09
:1034E0005553545D00000000576176652054797093
:1034F000653A00008C00002053494E450000000052
:103500005351554152450000545249414E474C4594
:10351000000000004F464600467265713A00000008
:10352000252E3166206B487A000000005670703AF4
:1035300000000000252E3166205600002B560000AA
:103540002D56000054696D65000000001021CDE982
:1035500000100A98089000EBD07041100B980844B6
:103560000A3006900998079000EBD07041100C9833
:1035700008441E3880B210233C220590069908F0BA
:103580009BFB1F21F4480160F448018AF44800784D
:10359000801C90FBF1F201FB1200F1490870002041
:1035A00008904CE0EE49097808980844EB49098AEC
:1035B00090FBF1F201FB12000790E848C168079800
:1035C00031F810000A994843C117049000EB1150DC
:1035D00001130B98411A0A98059000EBD07001EB8B
:1035E000600006900A98059000EBD07041100B988F
:1035F000411A0698814207DD0A98059000EBD070C9
:1036000041100B98401A06900A98059000EBD07074
:1036100041100B9801440698814207DA0A980590F8
:1036200000EBD07041100B9808440690069881B2C8
:10363000CC4A089822F810100898401C0890099865
:10364000401E08998842ADDC00200890A8E0C449DB
:10365000097808980844C149098A90FBF1F201FBF6
:10366000120007900898401CBD4909780844BB49DE
:10367000098A90FBF1F201FB12000690B748C1687D
:10368000079831F810000A994843C117029000EBDF
:10369000115001130B98411A0A98039000EBD07057
:1036A00001EB60000590AD48C168069831F8100044
:1036B0000A994843C117029000EB115001130B986F
:1036C000411A0A98039000EBD07001EB600004905F
:1036D0000A98039000EBD07041100B98411A05989E
:1036E000814207DD0A98039000EBD07041100B98DF
:1036F000401A05900A98039000EBD07041100B9887
:1037000001440598814207DA0A98039000EBD070D3
:1037100041100B98084405900A98039000EBD07074
:1037200041100B98411A0498814207DD0A980390D2
:1037300000EBD07041100B98401A04900A98039047
:1037400000EBD07041100B9801440498814207DAD5
:103750000A98039000EBD07041100B980844049035
:1037600008990C980844401C099A0C991144884205
:1037700013DA049880B2039008990C980844401C0E
:1037800080B20290059880B201900C98084480B2F3
:10379000009001A90EC904F013FF0898401C08907E
:1037A0000998801E089988423FF751AF4CF2186083
:1037B000694908600A98C117089000EB9170811060
:1037C0000B98401A80B206900A98C117079000EB38
:1037D000917081100B98401A80B2049009990C984E
:1037E000084480B205900C9880B2039004A90EC9D9
:1037F00004F0E6FE0A98C117089000EB9170811062
:103800000B98084480B206900A98C117079000EB05
:10381000917081100B98084480B2049009990C981B
:10382000084480B205900C9880B2039004A90EC998
:1038300004F0C6FE0A98089000EBD07041100B9877
:10384000084480B204900998C117079000EB91706A
:1038500081100C98084480B203900A98069000EBFF
:10386000D07041100B98401A80B202900998C1178D
:10387000059000EB917081100C98084480B2019083
:1038800002A90EC904F09CFE0A98089000EBD070C3
:1038900041100B98084480B204900998079000EBFF
:1038A000D07041100C98084480B203900A9806909A
:1038B00000EBD07041100B98401A80B2029009982A
:1038C000059000EBD07041100C98084480B2019034
:1038D00002A90EC904F074FE0A98089000EBD0709B
:1038E00041100B98084480B20490099800EB400006
:1038F000C117079000EB917081100C98084480B2BA
:1039000003900A98069000EBD07041100B98401A73
:1039100080B20290099800EB4000C117059000EBBF
:10392000917081100C98084480B2019002A90EC9D0
:1039300004F046FE0BE04FF6FF7040F2AD1340F28C
:1039400015323321009040F2911004F093FF0249A8
:103950000D9808601BB000BD200000208C000020E6
:10396000A1000020940A002010B5274800682749CC
:10397000884205D925485438006800F020001BE033
:10398000214800682249884205D9204858380068F3
:1039900000F0200010E01C4800681D496039884292
:1039A00005D91B48B838406800F0200004E01848EA
:1039B000B838006800F0200028B3134800681349A5
:1039C000884204D9202011494C39086018E00E487B
:1039D00000680F49884204D920200C4950390860FA
:1039E0000EE0094800680A496039884204D920205D
:1039F0000749B839C86003E020200549B839886014
:103A000004480068804710BDCC450020586402403F
:103A1000B8600240F40000200146087810381823EE
:103A2000B0FBF3F20848805CC865032A05D9086832
:103A30006FF30900001D886503E008686FF3090053
:103A40008865886D70470000CCE8010801460020B9
:103A50008A6A8B69CBB932B1012A0DD0022A03D010
:103A6000032A10D10EE000BFCB6A03F08073B3F1DC
:103A7000807F00D1012007E0CB6AB3F1C07F00D185
:103A8000012001E000E000BF34E08B69B3F5005F86
:103A90001AD132B1012A07D0022A03D0032A11D148
:103AA0000AE000BF01200EE0CB6A03F08073B3F19F
:103AB000807F00D1012006E0CB6AB3F1C07F00D146
:103AC000012000E000BF15E032B1012A05D0022A32
:103AD00004D0032A0CD103E000BF00BF012008E09E
:103AE000CB6A03F08073B3F1807F00D1012000E046
:103AF00000BF00BF704710B5046863608468402C45
:103B000004D10468A2600468E16003E00468A16075
:103B10000468E26010BD30B50468246824F4802491
:103B200005682C60046863608468402C04D10468D4
:103B3000A2600468E16003E00468A1600468E260D8
:103B400030BD7047704700002DE9F04104460D4636
:103B5000164604482718324639462846FCF7E1FF46
:103B6000BDE8F0810000080810B5012000F060FEFB
:103B700010BD10B5042000F05BFE10BD10B508208C
:103B800000F056FE10BD10B5102000F051FE10BD23
:103B900072B600BFFEE7000070B504461D46002364
:103BA000B5F5804F13D154F822300C480340D1E9C9
:103BB000000640EA06108E6840EA06208E8940EA38
:103BC00006408E693043034344F8223003E06FF02F
:103BD000704044F82200002070BD00000000F0CFCB
:103BE00010B503460022086853F82020124802400E
:103BF000D1E901042043CC6820430C6920434C697F
:103C000020438C692043CC6920430C6A20434C6AD2
:103C100020438C6A2043CC6A2043CC6B20430C6B3E
:103C2000204302438868082801D142F04002086816
:103C300043F82020002010BD8000F0FF30B503467F
:103C40000024501C53F8204004F04044D1E9000502
:103C500040EA05108D6840EA05208D8940EA054557
:103C6000088A401E45EA0055087D801E45EA00602E
:103C70008D6928430443501C43F82040002030BD88
:103C80002DE9F05F82460F4614462046E21704EB0A
:103C90005272D2102146E31704EB5373DB10A4EBEE
:103CA000C3030BB1012300E000231A44624302F076
:103CB000FF099AF800600AF1010082460578812E1A
:103CC00005DB402D03DBFF2D01D0FF2E0DD14FF082
:103CD000000B06E0002007F8010B0BF1010000F0DB
:103CE000FF0BCB45F6DBBDE8F09F7F2D03DAA5F196
:103CF0004000C5B202E0A5F14100C5B2A6F18100C5
:103D0000C6B2BE2010FB065000FB09F80C2C04D0F4
:103D1000102C0CD0182C1ED113E01048D0F809003C
:103D200000EB08014A4638460BF088FA13E00B48CE
:103D3000D0F8110000EB08014A4638460BF07EFA35
:103D400009E00648D0F8190000EB08014A46384659
:103D50000BF074FA00BF00BF00BFC4E788F3012076
:103D600070B505460C460D2C1DD2DFE804F01C078B
:103D700014080F09100A0B110C120D0000BF00BF30
:103D800000BF00BF00BF00BF1F2070BD00BF00BF4D
:103D900000BF1E20F9E7284604F032FA08B11D20C2
:103DA000F3E71C20F1E71F20EFE7000038B50246DB
:103DB0000020009000BF92F83C00012801D10220B1
:103DC00038BD012082F83C0000BF0868092816D9D8
:103DD0001068C0680C780A3C04EB44050724AC402A
:103DE000A0431468E0600C780A3C04EB4404886843
:103DF000A0401468E46820431468E06013E0106891
:103E000000690C7804EB44050724AC40A043146817
:103E100020610C7804EB44048868A040146824698D
:103E20002043146820614868072817D21068406B47
:103E30000C79641E04EB84051F24AC40A043146875
:103E40006063088880B20C79641E04EB8404A0408F
:103E50001468646B20431468606331E048680D287F
:103E600017D21068006B0C79E41F04EB84051F2443
:103E7000AC40A04314682063088880B20C79E41F2A
:103E800004EB8404A0401468246B2043146820636E
:103E900016E01068C06A0C790D3C04EB84051F2401
:103EA000AC40A0431468E062088880B20C790D3CF5
:103EB00004EB8404A0401468E46A20431468E062C0
:103EC000194B1A4C1068A04206D10868122803D179
:103ED000586840F480005860144C1068A0421CD10F
:103EE0000868102802D00868112816D1586840F4D4
:103EF00000005860086810280FD10D4800680D4C6C
:103F0000B0FBF4F000EB80004000009002E000986D
:103F1000401E009000980028F9D100BF002082F8D0
:103F20003C0000BF00BF4BE70023014000200140E0
:103F3000BC03002040420F0001460868C06C704777
:103F400070B5044600250CB9012070BD1549A06A62
:103F5000884200D000BF206C30B9204600F024F821
:103F60000020606484F83C00206C00F0100088B9E8
:103F7000206C20F4885040F0020020642046FEF7B8
:103F8000F3FA00206064206C20F0020040F0010091
:103F9000206400E0012500BF002084F83C0000BF41
:103FA0002846D2E70100000F704770B504460D4661
:103FB00000262068806800F48060B0F5806F11D121
:103FC0002068806800F48070B0F5807F0AD1206C92
:103FD00040F02000206400BF002084F83C0000BFB7
:103FE000012070BD00F038FD064618E0681CB0B135
:103FF00025B100F031FD801BA84210D9206800686F
:1040000000F0020002280AD0206C40F00400206476
:1040100000BF002084F83C0000BF0320E1E72068D7
:10402000006800F002000228E0D16FF01200216861
:104030000860206C40F4007020642068806800F004
:104040004050B8B9207EA8B92068C06A00F470005A
:1040500020B12068806800F4806058B9206C20F49A
:1040600080702064206C00F4805018B9206C40F0FF
:10407000010020640020B4E708B50146002000904C
:1040800000BF91F83C00012801D1022008BD0120A9
:1040900081F83C0000BF0868806800F00100A0B90A
:1040A0000868806840F001000B6898603F4800682D
:1040B0003F4BB0FBF3F000EB4000009002E00098B3
:1040C000401E009000980028F9D10868806800F030
:1040D0000100002860D0086C40F20163984340F46E
:1040E000807008640868406800F4806028B1086C3B
:1040F00020F4005040F480500864086C00F48050B4
:10410000B0F5805F04D1486C20F00600486401E0FF
:104110000020486400BF002081F83C0000BF254A11
:104120006FF022000B681860506800F01F0018BB89
:10413000214B0868984213D0204B0868984204D15C
:10414000101D006800F01F0050B11D4B0868984218
:104150002AD11848001D006800F01F00102823D243
:104160000868806800F04050F0B90868806840F046
:1041700080400B68986017E00F4B0868984213D195
:104180000868806800F0405070B90868806840F0A6
:1041900080400B68986007E0086C40F010000864ED
:1041A000486C40F00100486400206FE7BC03002029
:1041B00040420F0000230140002001400021014047
:1041C00000220140014600BF91F83C00012801D1C6
:1041D00002207047012081F83C0000BF0868806819
:1041E00020F001000A6890600868806800F0010013
:1041F00028B9086C20F4885040F00100086400BF22
:10420000002081F83C0000BF00BFE2E77047704724
:104210007047F0B5034600BF5879012801D102204C
:10422000F0BD0120587100BF0220187118680468A1
:1042300002F0100640F6FE70B0408443D1E900065B
:1042400040EA060502F0100005FA00F00443186881
:1042500004601868006802F01007C026BE40B04332
:104260001E6830600120187100BF0020587100BF27
:1042700000BFD5E770477047704710B504460CB9CA
:10428000012010BD207920B900206071204600F087
:1042900008F80220207100202061012020710020F8
:1042A000EFE770472DE9F04704460D46164699465C
:1042B000089F4FF00008C24600BF6079012802D174
:1042C0000220BDE8F0870120607100BF022020714C
:1042D00015BB3C48A168C8633B48A16808643B48DB
:1042E000A168C8642068006840F4805021680860B4
:1042F00027B1042F06D0082F0CD107E0206800F169
:10430000080A08E0206800F10C0A04E0206800F1C7
:10431000100A00E000BF22E02D48E168C8632D4884
:10432000E16808642C48E168C8642068006840F0CF
:1043300080502168086027B1042F06D0082F0CD1C7
:1043400007E0206800F1140A08E0206800F1180A6C
:1043500004E0206800F11C0A00E000BF00BF6DB956
:104360002068006840F40050216808604B465246BF
:104370003146A06800F0B6F980460CE0206800687D
:1043800040F00050216808604B4652463146E068D4
:1043900000F0A8F9804600BF0020607100BFB8F1AE
:1043A000000F09D12068006805F01002012191403A
:1043B00008432168086003E0206940F004002061A0
:1043C00040467EE769280008C12800088D280008BB
:1043D0007B280008CF280008A728000870B50446ED
:1043E0000D462068006805F010024FF4805191409E
:1043F0008843216808602068006805F010020121E8
:1044000091408843216808604DB9A06800F052F8D7
:104410002068006820F400502168086008E0E06827
:1044200000F048F82068006820F00050216808601B
:1044300001202071002070BD2DE9F04704460E4692
:1044400017461D46DDF820804FF00009A06880283F
:1044500004D1400060654FF0010929E000BF94F8E5
:104460003400012802D10220BDE8F087012084F841
:10447000340000BF94F83500012817D1022084F8D9
:1044800035002068006840F48020216808602068BA
:10449000056143463A4631462046FFF72CFB20682B
:1044A000006840F001002168086001E04FF0020957
:1044B0004846D9E770B50446A56D00F0CDFA06462A
:1044C00094F83500022808D08020606500BF0020E5
:1044D00084F8340000BF012070BD2068006820F01F
:1044E0001600216808602068406920F0800021687B
:1044F0004861206C08B9A06C28B12068006820F0E1
:104500000800216808602068006820F00100216828
:10451000086010E000F0A0FA801B05280BD92020CD
:104520006065032084F8350000BF002084F8340063
:1045300000BF0320D0E72068006800F001000028D9
:10454000E8D194F85C103F208840A860012084F8EE
:10455000350000BF002084F8340000BF00BFBBE777
:10456000014691F83500022803D0802048650120DB
:104570007047052081F835000868006820F00100C8
:104580000A6810600020F3E770B504460CB90120FA
:1045900070BD94F83500022800D1F9E72068006862
:1045A00020F001002168086000202168086021686F
:1045B0004860216888602168C860216808612120FE
:1045C000216848612046FFF727FA05460020E0638E
:1045D00020646064A064E064206594F85C103F206F
:1045E0008840A8600020606584F8350000BF84F82A
:1045F000340000BF00BFCBE72DE9F04104460025A1
:1046000000F02AFA074614B90120BDE8F081606A7B
:1046100000B100BF022084F8350000BF002084F8FC
:10462000340000BF2068006820F0010021680860A5
:104630000AE000F011FAC01B052805D920206065AA
:10464000032084F83500E0E72068006800F00100EE
:104650000028EED12068056821480540D4E9010111
:104660000843E16808432169084361690843A16977
:104670000843E1690843216A08430543606A042846
:1046800003D1D4E90B010843054320680560206885
:10469000456925F00705606A0543606A04280DD165
:1046A000A06A0543E06A48B12046FFF7CFF928B178
:1046B00040206065012084F83500A6E72068456148
:1046C0002046FFF7A9F9064694F85C103F20884081
:1046D000B06000206065012084F83500002094E778
:1046E0003F8010F02DE9F04704460D4616461F4660
:1046F0004FF00008D4F8589000BF94F83400012817
:1047000002D10220BDE8F087012084F8340000BF08
:1047100094F83500012825D1022084F835000020C6
:1047200060653B46324629462046FFF7F4F994F887
:104730005C103F208840C9F808002068006840F0FD
:10474000160021680860206C28B12068006840F0DD
:104750000800216808602068006840F001002168B6
:10476000086006E000BF002084F8340000BF4FF06E
:1047700002084046C6E7000070B5044600F06CF938
:1047800006462546681C10B104480078054400BF61
:1047900000F062F9801BA842FAD370BDB803002074
:1047A00070B5054600F058F90446012D06D0042DD9
:1047B0000FD0082D18D0102D2CD120E017480068FC
:1047C000201A3C2804D915480460002014490870B8
:1047D00021E014480068201A3C2804D911480460DC
:1047E00002200F49087016E00F480068201A3C2884
:1047F00004D90D4804600120094908700BE00B48FA
:104800000068201A3C2804D90848046003200449A1
:10481000087000E000BF00BF70BD0000280000204D
:10482000550000202C000020300000203400002023
:1048300010B5044604480068204020B102480460D6
:104840002046FFF7ADFF10BD143C0140F8B502460D
:104850000B460025002400200021D5E0012606FAA1
:1048600001F51E6806EA0504AC4274D11E7906F013
:104870000306012E04D01E7906F00306022E13D182
:1048800090684F000326BE40B0434F00DE68BE4034
:1048900030439060506801268E40B0431E79C6F3C5
:1048A00000168E40304350601E7906F00306032E3A
:1048B00009D0D0684F000326BE40B0434F009E6829
:1048C000BE403043D0601E7906F00306022E13D19D
:1048D000CF0802F1200656F827004E07F70E0F26E4
:1048E000BE40B0434F07FF0E1E69BE403043CF08A5
:1048F00002F1200646F8270010684F000326BE404C
:10490000B0431E7906F003064F00BE4030431060EE
:104910005E6806F44036002E75D000BF0026009673
:104920003B4E366846F48046394F3E603E46366818
:1049300006F48046009600BF00BF364E8F0856F83A
:1049400027008E07370F0F26BE40B043324EB242CB
:1049500002D1002624E056E0304EB24201D10126B9
:104960001EE02F4EB24201D1022619E02D4EB24276
:1049700001D1032614E02C4EB24201D104260FE0EF
:104980002A4EB24201D105260AE0294EB24201D197
:10499000062605E0274EB24201D1072600E0082690
:1049A0008F073F0FBE4030431A4E8F0846F827004E
:1049B000214E3068A0435E6806F4803606B120437D
:1049C0001D4E3060361D3068A0435E6806F4003628
:1049D00006B12043184E361D3060361D3068A043A6
:1049E0005E6806F4801606B12043134E0836306028
:1049F000361D3068A0435E6806F4001606B12043F9
:104A00000D4E0C363060491C1029FFF427AFF8BD5D
:104A100044380240083801400000024000040240CF
:104A200000080240000C0240001002400014024046
:104A300000180240001C0240003C0140024613697D
:104A40000B400BB1012000E0002070470AB18161EA
:104A500001E00B0483617047014800687047000063
:104A6000B003002010B586B0044620688068059029
:104A70008B492068884201D18A4801E04FF04020EC
:104A800080680490206840680390854920688842C7
:104A900001D1844801E04FF04020406802906068F6
:104AA000B0F5007F02D0606800286FD1059800F053
:104AB0000200022806D1039800F0800010B12046C1
:104AC00003F04CF9049800F0010030B1029800F0B6
:104AD000400010B1204603F00BF9049800F04000AC
:104AE000402832D1029800F0200070B36C49206851
:104AF000884201D16B4801E04FF04020406820F02F
:104B00006000674A2168914201D1664901E04FF097
:104B1000402148602068406820F0A000216848607B
:104B200000BF002001902068C06801902068806864
:104B3000019000BF00BF012084F84100606C40F08C
:104B400002006064204600F0B0F8059800F008000C
:104B5000082831D1039800F0200000282CD02068CC
:104B6000406820F0A000216848604D4920688842D4
:104B700001D14C4801E04FF04020406820F0600037
:104B8000474A2168914202D1464902E015E04FF0C0
:104B90004021486000BF002001902068806801909B
:104BA00000BF00BF012084F84100606C40F00400A9
:104BB0006064204600F079F870E0049800F002008C
:104BC000022806D1029800F0800010B1204603F0C0
:104BD000E1F8059800F0010030B1039800F04000C2
:104BE00010B1204603F066F8059800F04000402818
:104BF00027D1039800F0200018B32068406820F007
:104C000060002168486026492068884201D1254813
:104C100001E04FF04020406820F0A000204A2168C9
:104C2000914201D11F4901E04FF04021486001202D
:104C300084F84100606C40F002006064204600F09F
:104C400034F8049800F00800082827D1029800F0F2
:104C5000200018B312492068884201D1114801E0B0
:104C60004FF04020406820F0A0000D4A216891429A
:104C700001D10C4901E04FF04021486020684068B4
:104C800020F0600021684860012084F84100606CD9
:104C900040F004006064204600F007F806B010BD44
:104CA0000038004000340040704770472DE9F0475D
:104CB000044614B90120BDE8F08794F8410038B9E2
:104CC000002084F8400067486063204600F0D2F876
:104CD000022084F841002068C06940F6BF71884313
:104CE0002168C861022021680862606902283CD0FE
:104CF000E06808B9102600E02026A068202800D827
:104D00007600012000F0E0F980462069B0F5007FD0
:104D100017D1E06850B1B000B8FBF0F000EB8000B4
:104D200041006069B1FBF0F0451D13E0F000B8FBF5
:104D3000F0F000EB800041006069B1FBF0F0451D30
:104D400008E0B8FBF6F000EB800041006069B1FBC1
:104D5000F0F0451D0A20B5FBF0F505F00109A5EBC3
:104D6000090047084FEA092902E002274FF000092D
:104D7000022F01D3FF2F05D9606C40F01000606452
:104D8000012098E7206940EA090038432168086259
:104D9000606840F40060A1680843E1680843A169C5
:104DA00008432168C96940F6BF72914308432168EE
:104DB000C861206A01284DD12B4860632B492068C7
:104DC000884201D12A4801E04FF04020C06940F6F6
:104DD000BF718843254A2168914201D1244901E0ED
:104DE0004FF04021C8610220204A2168914201D140
:104DF0001F4901E04FF0402108621C4920688842A9
:104E000001D11B4801E04FF04020C0691FFA80FA31
:104E10006068B0F5007F01D0606810B94FF480750C
:104E200000E00025A8B240F40060218989B208435F
:104E3000A18989B20843218B89B2084340EA0A0A52
:104E40000A492068884201D1094801E04FF040201A
:104E5000C0F81CA000206064012084F841000020FC
:104E600029E70000017E0008654A0008003800407C
:104E70000034004010B586B0044600BF002000900A
:104E80002248006840F480402049086008460068D5
:104E900000F48040009000BF00BF00BF00200090E1
:104EA0001A481038006840F00200184910390860AC
:104EB0000846006800F00200009000BF00BF00BF7D
:104EC000002000900846006840F004000860084692
:104ED000006800F00400009000BF00BF4FF4405095
:104EE00001900220029001200390032004900520ED
:104EF000059001A90648FFF7A9FC4C20019001A9E3
:104F00000448FFF7A3FC06B010BD00004038024083
:104F100000040240000802407047704703480068E0
:104F2000034909780844014908607047B00300202C
:104F3000B803002010B50D48006840F400700B491C
:104F400008600846006840F4806008600846006811
:104F500040F480700860032000F0A2F80F2000F0F9
:104F600007F800F02BF8002010BD0000003C0240C4
:104F700070B504460E4800784FF47A71B1FBF0F03A
:104F80000C490968B1FBF0F5284602F02DF908B18B
:104F9000012070BD102C07D200222146501E00F0C7
:104FA00041F80548046001E00120F2E70020F0E745
:104FB000B8030020BC030020B403002008B500BFE4
:104FC000002000900E48006840F480400C490860C2
:104FD0000846006800F48040009000BF00BF00BF9A
:104FE00000200090081F006840F08050091F0860F2
:104FF0000846006800F08050009000BF00BF08BD68
:105000004438024001460846002809DB00F01F032F
:1050100001229A4043099B0003F1E023C3F80021D9
:1050200000BF70472DE9F05F80460D461646002709
:105030000AF03EFC074639462A46334601F007008F
:10504000C0F1070ABAF1040F02D94FF0040A01E0D7
:10505000C0F1070AD14600F1040ABAF1070F02D2E3
:105060004FF0000A01E0A0F1030AD4464FF0010A14
:105070000AFA09FAAAF1010A0AEA020A0AFA0CFA79
:105080004FF0010B0BFA0CFBABF1010B0BEA030B1E
:105090004AEA0B04214640460AF012FCBDE8F09FA4
:1050A00000BF00F00702064B19684FF6FF031940D6
:1050B000044B0B4343EA0221014B196000BF7047C8
:1050C0000CED00E00000FA0570B50146002000225A
:1050D00000230024012934D11B4D2D6805F4000361
:1050E0001BB1012B29D1194829E0174D2D1F2D681F
:1050F00005F48005B5F5800F08D1134D2D1F2D68DF
:1051000005F03F05124EB6FBF5F207E00E4D2D1FE0
:105110002D6805F03F050F4EB6FBF5F20A4D7C35C4
:105120002D68C5F3881505FB02F4074D7C352D6805
:10513000C5F30275B4FBF5F001E0002000BF00BF2D
:1051400000BF00BF70BD0000083802400080BB00F7
:1051500040787D010024F400F8B5044600250026BF
:10516000207800F0010020B9207800F00400042825
:105170002FD100205B498866FFF76EFC054606E0EC
:10518000FFF76AFC401B022801D90320F8BD5648EE
:105190000068C0F3C0600028F2D160688101207A05
:1051A00041EA007050498431086001204D49886609
:1051B000FFF752FC054606E0FFF74EFC401B0228B5
:1051C00001D90320E2E748480068C0F3C060002826
:1051D000F2D0207800F0020002287DD100BF00202C
:1051E000009041484030006840F080503E494031D6
:1051F00008600846006800F08050009000BF00BFC3
:105200003A48006840F4807038490860FFF724FC91
:10521000054606E0FFF720FC401B022801D90320C9
:10522000B4E73248006800F480700028F2D02E48BD
:105230007030006800F440764EB3A08900F44070EE
:10524000B04224D028487030006820F44076012015
:105250002749086000200860234870300660006815
:1052600000F0010098B1FFF7F7FB054608E0FFF7F3
:10527000F3FB401B41F28831884201D9032085E7C6
:10528000194870300068C0F340000028EFD000BF1C
:10529000A08900F44070B0F5407F0CD1124808306E
:1052A000006820F4F810134AE168114008430E49E1
:1052B0000831086007E00C480830006820F4F81056
:1052C000094908310860084870300068A189C1F3B5
:1052D0000B010843044900E002E07031086000BFA0
:1052E000002053E7000047420038024000700040B1
:1052F000400E4742FFFCFF0F70B504460D460CB947
:10530000012070BD5848006800F00700A84209D28B
:1053100055490D700846006800F00700A84201D00A
:105320000120EEE7207800F0020002281DD120784D
:1053300000F00400042805D14C48006840F4E05017
:105340004A490860207800F00800082805D147483D
:10535000006840F46040454908604448006820F017
:10536000F000A168084341490860207800F001007E
:10537000A8B36068012807D13C4808380068C0F32A
:105380004040B8B90120BCE76068022802D06068DC
:10539000032807D1354808380068C0F3406048B991
:1053A0000120AEE7314808380068C0F3400008B972
:1053B0000120A6E72D48006820F00300616808433B
:1053C0002A490860FFF748FB064609E0FFF744FB5F
:1053D000801B41F28831884202D9032091E707E01F
:1053E0002248006800F00C006168B0EB810FEDD13D
:1053F0001D48006800F00700A84209D91A490D703D
:105400000846006800F00700A84201D0012078E7B4
:10541000207800F00400042807D11448006820F424
:10542000E050E168084311490860207800F0080066
:10543000082808D10D48006820F46040216940EA3E
:10544000C1000A49086000F03FF808490968C1F343
:105450000311074A515CC8400649086006480068C5
:10546000FFF786FD00204CE7003C02400838024070
:10547000D4E80108BC030020B40300200148006800
:1054800070470000BC03002000B5FFF7F7FF044998
:105490000968C1F38221034A515CC84000BD000085
:1054A00008380240E4E8010800B5FFF7E7FF0449C7
:1054B0000968C1F34231034A515CC84000BD000095
:1054C00008380240E4E801082DE9F04700240025EF
:1054D0000026A1462548006800F00C0020B10428F1
:1054E00005D008283AD105E0DFF8849039E0DFF8EC
:1054F000849036E01D48001F006800F03F041B4800
:10550000001F006800F4800078B11A481749091F8D
:105510000968C1F38811A0FB0170014622460023EF
:105520003846FAF73CFF05460EE011480F49091FBF
:105530000968C1F38811A0FB0170014622460023CF
:105540003846FAF72CFF05460848001F0068C0F3EC
:105550000140401C4600B5FBF6F902E0DFF8109070
:1055600000BF00BF4846BDE8F08700000838024091
:105570000024F40040787D01F8B504460CB9012000
:10558000F8BD207800F00100002874D0F9480068C8
:1055900000F00C0004280DD0F648006800F00C0064
:1055A000082813D1F348001F006800F48000B0F50C
:1055B000800F0BD1EF4808380068C0F34040002846
:1055C00059D06068002856D10120D9E700BF606833
:1055D000B0F5803F08D1E7480838006840F48030D3
:1055E000E449083908601EE06068B0F5A02F0DD1CD
:1055F000E0480838006840F48020DE490839086037
:105600000846006840F4803008600CE0D94808384B
:10561000006820F48030D7490839086008460068DF
:1056200020F48020086000BF606890B1FFF714FA92
:10563000054606E0FFF710FA401B642801D9032055
:105640009EE7CC4808380068C0F340400028F1D0FD
:1056500011E0FFF701FA054606E0FFF7FDF9401BF0
:10566000642801D903208BE7C24808380068C0F3DA
:1056700040400028F1D1207800F0020002285FD1DC
:10568000BC48006800F00C0058B1BA48006800F04F
:105690000C0008281CD1B748001F006800F48000E7
:1056A000B0B9B44808380068C0F3400020B1E068E1
:1056B000012801D0012063E7AE480838006820F0D7
:1056C000F800216940EAC100AA490839086037E0BA
:1056D000E06800B30120A8490860FFF7BDF905465E
:1056E00006E0FFF7B9F9401B022801D9032047E77C
:1056F000A04808380068C0F340000028F1D09D4859
:105700000838006820F0F800216940EAC100994992
:105710000839086014E0002097490860FFF79CF9F9
:10572000054606E0FFF798F9401B022801D903203F
:1057300026E7904808380068C0F340000028F1D1FF
:10574000207800F0080008282CD16069A8B1012059
:105750008A490860FFF780F9054606E0FFF77CF903
:10576000401B022801D903200AE782486C300068F8
:10577000C0F340000028F1D014E000207F49086009
:10578000FFF76AF9054606E0FFF766F9401B0228B5
:1057900001D90320F4E677486C300068C0F340007C
:1057A0000028F1D1207800F00400042870D10027EF
:1057B00070483830006800F0805090B900BF002079
:1057C00000906C483830006840F0805069493831AA
:1057D00008600846006800F08050009000BF00BFDD
:1057E00001276748006800F48070B0B96448006819
:1057F00040F4807062490860FFF72EF9054606E024
:10580000FFF72AF9401B022801D90320B8E65C48BB
:10581000006800F480700028F2D000BFA068012862
:1058200008D154486830006840F00100514968319F
:1058300008601DE0A06805280DD14E48683000685A
:1058400040F004004B49683108600846006840F0A9
:10585000010008600CE047486830006820F0010053
:105860004449683108600846006820F00400086078
:1058700000BFA068A8B1FFF7EFF8054609E0FFF701
:10588000EBF8401B41F28831884202D9032077E6C9
:1058900026E0384868300068C0F340000028EED0A9
:1058A00013E0FFF7D9F8054608E0FFF7D5F8401BED
:1058B00041F28831884201D9032061E62D486830E1
:1058C0000068C0F340000028EFD1012F07D129481C
:1058D0003830006820F0805026493831086000BF19
:1058E000A069002845D02348006800F00C00082873
:1058F0005DD0A069022845D100201F490866FFF746
:10590000ABF8054606E0FFF7A7F8401B022801D9CF
:10591000032035E6174808380068C0F340600028C7
:10592000F1D1D4E907010843616A40EA81110122FB
:10593000A06AC2EB500041EA00412C20005D41EA20
:1059400000600C49091F086001200B490866FFF739
:1059500083F8054606E0FFF77FF8401B022801D9CF
:1059600003200DE6034808380068C0F340600028B3
:10597000F1D049E00838024000004742800E47421B
:1059800000700040002021490866FFF765F80546D1
:1059900006E0FFF761F8401B022801D90320EFE57C
:1059A0001B480068C0F340600028F2D12CE0A069D9
:1059B000012800D1E4E51648001D0668A069012809
:1059C00020D006F48001E06981421BD106F03F013E
:1059D000206A814216D147F6C0703040616AB0EB50
:1059E000811F0FD106F440310122A06AC2EB5000A2
:1059F000B1EB004F06D106F070612C20005DB1EBD9
:105A0000006F01D00120BBE50020B9E5000047424E
:105A10000038024010B588B0044612492068884218
:105A20001ED1002203A9204600F0C6F9002202A9D7
:105A3000204600F09BF99DF80E000B490860FCF72A
:105A4000C3FE0AA02021CDE900100D4802880B46B4
:105A500023210A2006F030F901200A49087000BF0E
:105A600008B010BD0028004000000020416C6172A9
:105A70006D20422052696E67696E67210000000048
:105A80003C0400200400002002460023106800F1BE
:105A9000500303EB81031868704710B500230468B6
:105AA00004F1500303EB81031A6010BD18B50346DF
:105AB00000BF187F012801D1022018BD01201877EE
:105AC00000BF0220587700BFCA201C6860625320C4
:105AD0001C68606200BF1868806800F4806000B3D2
